{
  "_format": "hh-sol-artifact-1",
  "contractName": "StoryForm",
  "sourceName": "contracts/core/StoryForm.sol",
  "abi": [
    {
      "inputs": [
        {
          "internalType": "contract IStoryFormVerifier",
          "name": "_storyFormVerifier",
          "type": "address"
        },
        {
          "internalType": "contract IVerifier",
          "name": "_semaphoreVerifier",
          "type": "address"
        }
      ],
      "stateMutability": "nonpayable",
      "type": "constructor"
    },
    {
      "anonymous": false,
      "inputs": [
        {
          "indexed": true,
          "internalType": "uint256",
          "name": "groupId",
          "type": "uint256"
        },
        {
          "indexed": false,
          "internalType": "uint8",
          "name": "depth",
          "type": "uint8"
        },
        {
          "indexed": false,
          "internalType": "uint256",
          "name": "zeroValue",
          "type": "uint256"
        }
      ],
      "name": "GroupCreated",
      "type": "event"
    },
    {
      "anonymous": false,
      "inputs": [
        {
          "indexed": true,
          "internalType": "uint256",
          "name": "groupId",
          "type": "uint256"
        },
        {
          "indexed": false,
          "internalType": "uint256",
          "name": "identityCommitment",
          "type": "uint256"
        },
        {
          "indexed": false,
          "internalType": "uint256",
          "name": "root",
          "type": "uint256"
        }
      ],
      "name": "MemberAdded",
      "type": "event"
    },
    {
      "anonymous": false,
      "inputs": [
        {
          "indexed": true,
          "internalType": "uint256",
          "name": "groupId",
          "type": "uint256"
        },
        {
          "indexed": false,
          "internalType": "uint256",
          "name": "identityCommitment",
          "type": "uint256"
        },
        {
          "indexed": false,
          "internalType": "uint256",
          "name": "root",
          "type": "uint256"
        }
      ],
      "name": "MemberRemoved",
      "type": "event"
    },
    {
      "anonymous": false,
      "inputs": [
        {
          "indexed": false,
          "internalType": "uint256",
          "name": "nullifierHash",
          "type": "uint256"
        }
      ],
      "name": "NullifierHashAdded",
      "type": "event"
    },
    {
      "anonymous": false,
      "inputs": [
        {
          "indexed": true,
          "internalType": "uint256",
          "name": "submissionId",
          "type": "uint256"
        },
        {
          "indexed": true,
          "internalType": "uint256",
          "name": "groupId",
          "type": "uint256"
        }
      ],
      "name": "ProofVerified",
      "type": "event"
    },
    {
      "inputs": [
        {
          "internalType": "uint256",
          "name": "groupId",
          "type": "uint256"
        },
        {
          "internalType": "uint256",
          "name": "identityCommitment",
          "type": "uint256"
        }
      ],
      "name": "addMember",
      "outputs": [],
      "stateMutability": "nonpayable",
      "type": "function"
    },
    {
      "inputs": [
        {
          "internalType": "uint256",
          "name": "groupId",
          "type": "uint256"
        },
        {
          "internalType": "uint8",
          "name": "depth",
          "type": "uint8"
        }
      ],
      "name": "createGroup",
      "outputs": [],
      "stateMutability": "nonpayable",
      "type": "function"
    },
    {
      "inputs": [
        {
          "internalType": "uint256",
          "name": "groupId",
          "type": "uint256"
        }
      ],
      "name": "getDepth",
      "outputs": [
        {
          "internalType": "uint8",
          "name": "",
          "type": "uint8"
        }
      ],
      "stateMutability": "view",
      "type": "function"
    },
    {
      "inputs": [
        {
          "internalType": "uint256",
          "name": "groupId",
          "type": "uint256"
        }
      ],
      "name": "getNumberOfLeaves",
      "outputs": [
        {
          "internalType": "uint256",
          "name": "",
          "type": "uint256"
        }
      ],
      "stateMutability": "view",
      "type": "function"
    },
    {
      "inputs": [
        {
          "internalType": "uint256",
          "name": "groupId",
          "type": "uint256"
        }
      ],
      "name": "getRoot",
      "outputs": [
        {
          "internalType": "uint256",
          "name": "",
          "type": "uint256"
        }
      ],
      "stateMutability": "view",
      "type": "function"
    },
    {
      "inputs": [],
      "name": "semaphoreVerifier",
      "outputs": [
        {
          "internalType": "contract IVerifier",
          "name": "",
          "type": "address"
        }
      ],
      "stateMutability": "view",
      "type": "function"
    },
    {
      "inputs": [],
      "name": "storyFormVerifier",
      "outputs": [
        {
          "internalType": "contract IStoryFormVerifier",
          "name": "",
          "type": "address"
        }
      ],
      "stateMutability": "view",
      "type": "function"
    },
    {
      "inputs": [
        {
          "internalType": "uint256",
          "name": "formId",
          "type": "uint256"
        },
        {
          "internalType": "uint256",
          "name": "groupId",
          "type": "uint256"
        },
        {
          "internalType": "uint256",
          "name": "submissionId",
          "type": "uint256"
        },
        {
          "internalType": "uint256",
          "name": "nullifierHash",
          "type": "uint256"
        },
        {
          "internalType": "uint256[8]",
          "name": "membershipProof",
          "type": "uint256[8]"
        },
        {
          "internalType": "uint256[8]",
          "name": "submissionOwnershipProof",
          "type": "uint256[8]"
        }
      ],
      "name": "verifyProof",
      "outputs": [],
      "stateMutability": "nonpayable",
      "type": "function"
    }
  ],
  "bytecode": "0x60806040523480156200001157600080fd5b50604051620016b6380380620016b6833981810160405281019062000037919062000184565b81600260006101000a81548173ffffffffffffffffffffffffffffffffffffffff021916908373ffffffffffffffffffffffffffffffffffffffff16021790555080600360006101000a81548173ffffffffffffffffffffffffffffffffffffffff021916908373ffffffffffffffffffffffffffffffffffffffff1602179055505050620001cb565b600080fd5b600073ffffffffffffffffffffffffffffffffffffffff82169050919050565b6000620000f382620000c6565b9050919050565b60006200010782620000e6565b9050919050565b6200011981620000fa565b81146200012557600080fd5b50565b60008151905062000139816200010e565b92915050565b60006200014c82620000e6565b9050919050565b6200015e816200013f565b81146200016a57600080fd5b50565b6000815190506200017e8162000153565b92915050565b600080604083850312156200019e576200019d620000c1565b5b6000620001ae8582860162000128565b9250506020620001c1858286016200016d565b9150509250929050565b6114db80620001db6000396000f3fe608060405234801561001057600080fd5b50600436106100885760003560e01c80639b24b3b01161005b5780639b24b3b014610113578063b9c78c2b14610143578063ee0afb4614610173578063ffdad3ff1461019157610088565b80630ef53a151461008d5780631783efc3146100ab5780634fea0873146100c757806375e618c9146100e3575b600080fd5b6100956101ad565b6040516100a29190610af2565b60405180910390f35b6100c560048036038101906100c09190610b48565b6101d3565b005b6100e160048036038101906100dc9190610baf565b6101e1565b005b6100fd60048036038101906100f89190610c3e565b61022d565b60405161010a9190610c87565b60405180910390f35b61012d60048036038101906101289190610c3e565b61025a565b60405161013a9190610cb1565b60405180910390f35b61015d60048036038101906101589190610c3e565b61027a565b60405161016a9190610cb1565b60405180910390f35b61017b61029a565b6040516101889190610ced565b60405180910390f35b6101ab60048036038101906101a69190610d34565b6102c0565b005b600360009054906101000a900473ffffffffffffffffffffffffffffffffffffffff1681565b6101dd82826102d0565b5050565b6101ec8584846103e8565b6101f7868583610459565b84847fd4f3db4a3b56fedc0b470e2e34b8d98c7baf6e0c2c02edebb326437ba5c4b93f60405160405180910390a3505050505050565b60006001600083815260200190815260200160002060000160009054906101000a900460ff169050919050565b600060016000838152602001908152602001600020600101549050919050565b600060016000838152602001908152602001600020600201549050919050565b600260009054906101000a900473ffffffffffffffffffffffffffffffffffffffff1681565b6102cc828260006106a5565b5050565b60006102db8361022d565b60ff16141561031f576040517f08c379a000000000000000000000000000000000000000000000000000000000815260040161031690610df7565b60405180910390fd5b6001600083815260200190815260200160002073__$4c0484323457fe1a856f46a4759b553fe4$__63168703fa9091836040518363ffffffff1660e01b815260040161036c929190610e2d565b60006040518083038186803b15801561038457600080fd5b505af4158015610398573d6000803e3d6000fd5b5050505060006103a78361025a565b9050827f03fd27265b7dd1f55558bedc22a58fa3b10afb1be776e614bd5a7ba7b949940683836040516103db929190610e56565b60405180910390a2505050565b6000600160008581526020019081526020016000206001015490506104537f300000000000000000000000000000000000000000000000000000000000000082858786600360009054906101000a900473ffffffffffffffffffffffffffffffffffffffff16610813565b50505050565b600060405180604001604052808360006008811061047a57610479610e7f565b5b602002013581526020018360016008811061049857610497610e7f565b5b60200201358152509050600060405180604001604052806040518060400160405280866002600881106104ce576104cd610e7f565b5b60200201358152602001866003600881106104ec576104eb610e7f565b5b6020020135815250815260200160405180604001604052808660046008811061051857610517610e7f565b5b602002013581526020018660056008811061053657610535610e7f565b5b60200201358152508152509050600060405180604001604052808560066008811061056457610563610e7f565b5b602002013581526020018560076008811061058257610581610e7f565b5b602002013581525090506000604051806040016040528088815260200187815250905060011515600260009054906101000a900473ffffffffffffffffffffffffffffffffffffffff1673ffffffffffffffffffffffffffffffffffffffff1663f5c9d69e868686866040518563ffffffff1660e01b815260040161060a9493929190611057565b60206040518083038186803b15801561062257600080fd5b505afa158015610636573d6000803e3d6000fd5b505050506040513d601f19601f8201168201806040525081019061065a91906110d6565b15151461069c576040517f08c379a00000000000000000000000000000000000000000000000000000000081526004016106939061114f565b60405180910390fd5b50505050505050565b7f30644e72e131a029b85045b68181585d2833e84879b9709143e1f593f00000018310610707576040517f08c379a00000000000000000000000000000000000000000000000000000000081526004016106fe906111e1565b60405180910390fd5b60006107128461022d565b60ff1614610755576040517f08c379a000000000000000000000000000000000000000000000000000000000815260040161074c90611273565b60405180910390fd5b6001600084815260200190815260200160002073__$4c0484323457fe1a856f46a4759b553fe4$__63b4bdd117909184846040518463ffffffff1660e01b81526004016107a4939291906112a2565b60006040518083038186803b1580156107bc57600080fd5b505af41580156107d0573d6000803e3d6000fd5b50505050827fc3082aa494e9088c2c9f0fb62a0b6bd46e6699acb94cfba35be29b95a93f68c883836040516108069291906112d9565b60405180910390a2505050565b60008085815260200190815260200160002060009054906101000a900460ff1615610873576040517f08c379a000000000000000000000000000000000000000000000000000000000815260040161086a90611374565b60405180910390fd5b600061087e87610a3c565b90508173ffffffffffffffffffffffffffffffffffffffff16635fe8c13b6040518060400160405280866000600881106108bb576108ba610e7f565b5b60200201358152602001866001600881106108d9576108d8610e7f565b5b6020020135815250604051806040016040528060405180604001604052808960026008811061090b5761090a610e7f565b5b602002013581526020018960036008811061092957610928610e7f565b5b6020020135815250815260200160405180604001604052808960046008811061095557610954610e7f565b5b602002013581526020018960056008811061097357610972610e7f565b5b602002013581525081525060405180604001604052808860066008811061099d5761099c610e7f565b5b60200201358152602001886007600881106109bb576109ba610e7f565b5b602002013581525060405180608001604052808c81526020018b81526020018781526020018a8152506040518563ffffffff1660e01b8152600401610a039493929190611418565b60006040518083038186803b158015610a1b57600080fd5b505afa158015610a2f573d6000803e3d6000fd5b5050505050505050505050565b6000600882604051602001610a51919061148a565b6040516020818303038152906040528051906020012060001c901c9050919050565b600073ffffffffffffffffffffffffffffffffffffffff82169050919050565b6000819050919050565b6000610ab8610ab3610aae84610a73565b610a93565b610a73565b9050919050565b6000610aca82610a9d565b9050919050565b6000610adc82610abf565b9050919050565b610aec81610ad1565b82525050565b6000602082019050610b076000830184610ae3565b92915050565b600080fd5b6000819050919050565b610b2581610b12565b8114610b3057600080fd5b50565b600081359050610b4281610b1c565b92915050565b60008060408385031215610b5f57610b5e610b0d565b5b6000610b6d85828601610b33565b9250506020610b7e85828601610b33565b9150509250929050565b600080fd5b600081905082602060080282011115610ba957610ba8610b88565b5b92915050565b6000806000806000806102808789031215610bcd57610bcc610b0d565b5b6000610bdb89828a01610b33565b9650506020610bec89828a01610b33565b9550506040610bfd89828a01610b33565b9450506060610c0e89828a01610b33565b9350506080610c1f89828a01610b8d565b925050610180610c3189828a01610b8d565b9150509295509295509295565b600060208284031215610c5457610c53610b0d565b5b6000610c6284828501610b33565b91505092915050565b600060ff82169050919050565b610c8181610c6b565b82525050565b6000602082019050610c9c6000830184610c78565b92915050565b610cab81610b12565b82525050565b6000602082019050610cc66000830184610ca2565b92915050565b6000610cd782610abf565b9050919050565b610ce781610ccc565b82525050565b6000602082019050610d026000830184610cde565b92915050565b610d1181610c6b565b8114610d1c57600080fd5b50565b600081359050610d2e81610d08565b92915050565b60008060408385031215610d4b57610d4a610b0d565b5b6000610d5985828601610b33565b9250506020610d6a85828601610d1f565b9150509250929050565b600082825260208201905092915050565b7f53656d6170686f726547726f7570733a2067726f757020646f6573206e6f742060008201527f6578697374000000000000000000000000000000000000000000000000000000602082015250565b6000610de1602583610d74565b9150610dec82610d85565b604082019050919050565b60006020820190508181036000830152610e1081610dd4565b9050919050565b8082525050565b610e2781610b12565b82525050565b6000604082019050610e426000830185610e17565b610e4f6020830184610e1e565b9392505050565b6000604082019050610e6b6000830185610ca2565b610e786020830184610ca2565b9392505050565b7f4e487b7100000000000000000000000000000000000000000000000000000000600052603260045260246000fd5b600060029050919050565b600081905092915050565b6000819050919050565b610ed781610b12565b82525050565b6000610ee98383610ece565b60208301905092915050565b6000602082019050919050565b610f0b81610eae565b610f158184610eb9565b9250610f2082610ec4565b8060005b83811015610f51578151610f388782610edd565b9650610f4383610ef5565b925050600181019050610f24565b505050505050565b600060029050919050565b600081905092915050565b6000819050919050565b600081905092915050565b610f8d81610eae565b610f978184610f79565b9250610fa282610ec4565b8060005b83811015610fd3578151610fba8782610edd565b9650610fc583610ef5565b925050600181019050610fa6565b505050505050565b6000610fe78383610f84565b60408301905092915050565b6000602082019050919050565b61100981610f59565b6110138184610f64565b925061101e82610f6f565b8060005b8381101561104f5781516110368782610fdb565b965061104183610ff3565b925050600181019050611022565b505050505050565b60006101408201905061106d6000830187610f02565b61107a6040830186611000565b61108760c0830185610f02565b611095610100830184610f02565b95945050505050565b60008115159050919050565b6110b38161109e565b81146110be57600080fd5b50565b6000815190506110d0816110aa565b92915050565b6000602082840312156110ec576110eb610b0d565b5b60006110fa848285016110c1565b91505092915050565b7f496e766c696420646174616f776e6572736869702070726f6f66000000000000600082015250565b6000611139601a83610d74565b915061114482611103565b602082019050919050565b600060208201905081810360008301526111688161112c565b9050919050565b7f53656d6170686f726547726f7570733a2067726f7570206964206d757374206260008201527f65203c20534e41524b5f5343414c41525f4649454c4400000000000000000000602082015250565b60006111cb603683610d74565b91506111d68261116f565b604082019050919050565b600060208201905081810360008301526111fa816111be565b9050919050565b7f53656d6170686f726547726f7570733a2067726f757020616c7265616479206560008201527f7869737473000000000000000000000000000000000000000000000000000000602082015250565b600061125d602583610d74565b915061126882611201565b604082019050919050565b6000602082019050818103600083015261128c81611250565b9050919050565b61129c81610c6b565b82525050565b60006060820190506112b76000830186610e17565b6112c46020830185611293565b6112d16040830184610e1e565b949350505050565b60006040820190506112ee6000830185610c78565b6112fb6020830184610ca2565b9392505050565b7f53656d6170686f7265436f72653a20796f752063616e6e6f742075736520746860008201527f652073616d65206e756c6c696669657220747769636500000000000000000000602082015250565b600061135e603683610d74565b915061136982611302565b604082019050919050565b6000602082019050818103600083015261138d81611351565b9050919050565b600060049050919050565b600081905092915050565b6000819050919050565b6000602082019050919050565b6113ca81611394565b6113d4818461139f565b92506113df826113aa565b8060005b838110156114105781516113f78782610edd565b9650611402836113b4565b9250506001810190506113e3565b505050505050565b60006101808201905061142e6000830187610f02565b61143b6040830186611000565b61144860c0830185610f02565b6114566101008301846113c1565b95945050505050565b6000819050919050565b6000819050919050565b61148461147f8261145f565b611469565b82525050565b60006114968284611473565b6020820191508190509291505056fea2646970667358221220208ec5092c05386344fdc21a93e4717ffc61cb6b9d248606b7e02bc5dcde07c064736f6c63430008090033",
  "linkReferences": {
    "@zk-kit/incremental-merkle-tree.sol/contracts/IncrementalBinaryTree.sol": {
      "IncrementalBinaryTree": [
        {
          "length": 20,
          "start": 1295
        },
        {
          "length": 20,
          "start": 2373
        }
      ]
    }
  },
  "deployedLinkReferences": {
    "@zk-kit/incremental-merkle-tree.sol/contracts/IncrementalBinaryTree.sol": {
      "IncrementalBinaryTree": [
        {
          "length": 20,
          "start": 820
        },
        {
          "length": 20,
          "start": 1898
        }
      ]
    }
  }
}