{
  "_format": "hh-sol-artifact-1",
  "contractName": "StoryForm",
  "sourceName": "contracts/core/StoryForm.sol",
  "abi": [
    {
      "inputs": [
        {
          "internalType": "contract IStoryFormVerifier",
          "name": "_storyFormVerifier",
          "type": "address"
        },
        {
          "internalType": "contract IVerifier",
          "name": "_semaphoreVerifier",
          "type": "address"
        }
      ],
      "stateMutability": "nonpayable",
      "type": "constructor"
    },
    {
      "anonymous": false,
      "inputs": [
        {
          "indexed": true,
          "internalType": "uint256",
          "name": "groupId",
          "type": "uint256"
        },
        {
          "indexed": false,
          "internalType": "uint8",
          "name": "depth",
          "type": "uint8"
        },
        {
          "indexed": false,
          "internalType": "uint256",
          "name": "zeroValue",
          "type": "uint256"
        }
      ],
      "name": "GroupCreated",
      "type": "event"
    },
    {
      "anonymous": false,
      "inputs": [
        {
          "indexed": true,
          "internalType": "uint256",
          "name": "groupId",
          "type": "uint256"
        },
        {
          "indexed": false,
          "internalType": "uint256",
          "name": "identityCommitment",
          "type": "uint256"
        },
        {
          "indexed": false,
          "internalType": "uint256",
          "name": "root",
          "type": "uint256"
        }
      ],
      "name": "MemberAdded",
      "type": "event"
    },
    {
      "anonymous": false,
      "inputs": [
        {
          "indexed": true,
          "internalType": "uint256",
          "name": "groupId",
          "type": "uint256"
        },
        {
          "indexed": false,
          "internalType": "uint256",
          "name": "identityCommitment",
          "type": "uint256"
        },
        {
          "indexed": false,
          "internalType": "uint256",
          "name": "root",
          "type": "uint256"
        }
      ],
      "name": "MemberRemoved",
      "type": "event"
    },
    {
      "anonymous": false,
      "inputs": [
        {
          "indexed": false,
          "internalType": "uint256",
          "name": "nullifierHash",
          "type": "uint256"
        }
      ],
      "name": "NullifierHashAdded",
      "type": "event"
    },
    {
      "anonymous": false,
      "inputs": [
        {
          "indexed": true,
          "internalType": "uint256",
          "name": "submissionId",
          "type": "uint256"
        },
        {
          "indexed": true,
          "internalType": "uint256",
          "name": "groupId",
          "type": "uint256"
        }
      ],
      "name": "ProofVerified",
      "type": "event"
    },
    {
      "inputs": [
        {
          "internalType": "uint256",
          "name": "groupId",
          "type": "uint256"
        },
        {
          "internalType": "uint256",
          "name": "identityCommitment",
          "type": "uint256"
        }
      ],
      "name": "addMember",
      "outputs": [],
      "stateMutability": "nonpayable",
      "type": "function"
    },
    {
      "inputs": [
        {
          "internalType": "uint256",
          "name": "groupId",
          "type": "uint256"
        },
        {
          "internalType": "uint8",
          "name": "depth",
          "type": "uint8"
        }
      ],
      "name": "createGroup",
      "outputs": [],
      "stateMutability": "nonpayable",
      "type": "function"
    },
    {
      "inputs": [
        {
          "internalType": "uint256",
          "name": "groupId",
          "type": "uint256"
        }
      ],
      "name": "getDepth",
      "outputs": [
        {
          "internalType": "uint8",
          "name": "",
          "type": "uint8"
        }
      ],
      "stateMutability": "view",
      "type": "function"
    },
    {
      "inputs": [
        {
          "internalType": "uint256",
          "name": "groupId",
          "type": "uint256"
        }
      ],
      "name": "getNumberOfLeaves",
      "outputs": [
        {
          "internalType": "uint256",
          "name": "",
          "type": "uint256"
        }
      ],
      "stateMutability": "view",
      "type": "function"
    },
    {
      "inputs": [
        {
          "internalType": "uint256",
          "name": "groupId",
          "type": "uint256"
        }
      ],
      "name": "getRoot",
      "outputs": [
        {
          "internalType": "uint256",
          "name": "",
          "type": "uint256"
        }
      ],
      "stateMutability": "view",
      "type": "function"
    },
    {
      "inputs": [],
      "name": "semaphoreVerifier",
      "outputs": [
        {
          "internalType": "contract IVerifier",
          "name": "",
          "type": "address"
        }
      ],
      "stateMutability": "view",
      "type": "function"
    },
    {
      "inputs": [],
      "name": "storyFormVerifier",
      "outputs": [
        {
          "internalType": "contract IStoryFormVerifier",
          "name": "",
          "type": "address"
        }
      ],
      "stateMutability": "view",
      "type": "function"
    },
    {
      "inputs": [
        {
          "internalType": "uint256",
          "name": "formId",
          "type": "uint256"
        },
        {
          "internalType": "uint256",
          "name": "groupId",
          "type": "uint256"
        },
        {
          "internalType": "uint256",
          "name": "submissionId",
          "type": "uint256"
        },
        {
          "internalType": "uint256",
          "name": "nullifierHash",
          "type": "uint256"
        },
        {
          "internalType": "uint256[8]",
          "name": "membershipProof",
          "type": "uint256[8]"
        },
        {
          "internalType": "uint256[8]",
          "name": "submissionOwnershipProof",
          "type": "uint256[8]"
        }
      ],
      "name": "veirfyProof",
      "outputs": [],
      "stateMutability": "nonpayable",
      "type": "function"
    }
  ],
  "bytecode": "0x60806040523480156200001157600080fd5b506040516200178138038062001781833981810160405281019062000037919062000184565b81600260006101000a81548173ffffffffffffffffffffffffffffffffffffffff021916908373ffffffffffffffffffffffffffffffffffffffff16021790555080600360006101000a81548173ffffffffffffffffffffffffffffffffffffffff021916908373ffffffffffffffffffffffffffffffffffffffff1602179055505050620001cb565b600080fd5b600073ffffffffffffffffffffffffffffffffffffffff82169050919050565b6000620000f382620000c6565b9050919050565b60006200010782620000e6565b9050919050565b6200011981620000fa565b81146200012557600080fd5b50565b60008151905062000139816200010e565b92915050565b60006200014c82620000e6565b9050919050565b6200015e816200013f565b81146200016a57600080fd5b50565b6000815190506200017e8162000153565b92915050565b600080604083850312156200019e576200019d620000c1565b5b6000620001ae8582860162000128565b9250506020620001c1858286016200016d565b9150509250929050565b6115a680620001db6000396000f3fe608060405234801561001057600080fd5b50600436106100885760003560e01c80639b24b3b01161005b5780639b24b3b014610113578063b9c78c2b14610143578063ee0afb4614610173578063ffdad3ff1461019157610088565b80630ef53a151461008d5780631783efc3146100ab57806321d3c3f2146100c757806375e618c9146100e3575b600080fd5b6100956101ad565b6040516100a29190610bbd565b60405180910390f35b6100c560048036038101906100c09190610c13565b6101d3565b005b6100e160048036038101906100dc9190610c7a565b6101e1565b005b6100fd60048036038101906100f89190610d09565b61022d565b60405161010a9190610d52565b60405180910390f35b61012d60048036038101906101289190610d09565b61025a565b60405161013a9190610d7c565b60405180910390f35b61015d60048036038101906101589190610d09565b61027a565b60405161016a9190610d7c565b60405180910390f35b61017b61029a565b6040516101889190610db8565b60405180910390f35b6101ab60048036038101906101a69190610dff565b6102c0565b005b600360009054906101000a900473ffffffffffffffffffffffffffffffffffffffff1681565b6101dd82826102d0565b5050565b6101ec8584846103e8565b6101f7868583610462565b84847fd4f3db4a3b56fedc0b470e2e34b8d98c7baf6e0c2c02edebb326437ba5c4b93f60405160405180910390a3505050505050565b60006001600083815260200190815260200160002060000160009054906101000a900460ff169050919050565b600060016000838152602001908152602001600020600101549050919050565b600060016000838152602001908152602001600020600201549050919050565b600260009054906101000a900473ffffffffffffffffffffffffffffffffffffffff1681565b6102cc828260006106ae565b5050565b60006102db8361022d565b60ff16141561031f576040517f08c379a000000000000000000000000000000000000000000000000000000000815260040161031690610ec2565b60405180910390fd5b6001600083815260200190815260200160002073__$4c0484323457fe1a856f46a4759b553fe4$__63168703fa9091836040518363ffffffff1660e01b815260040161036c929190610ef8565b60006040518083038186803b15801561038457600080fd5b505af4158015610398573d6000803e3d6000fd5b5050505060006103a78361025a565b9050827f03fd27265b7dd1f55558bedc22a58fa3b10afb1be776e614bd5a7ba7b949940683836040516103db929190610f21565b60405180910390a2505050565b60006001600085815260200190815260200160002060010154905061040c8161081c565b61045c7f300000000000000000000000000000000000000000000000000000000000000082858786600360009054906101000a900473ffffffffffffffffffffffffffffffffffffffff166108b5565b50505050565b600060405180604001604052808360006008811061048357610482610f4a565b5b60200201358152602001836001600881106104a1576104a0610f4a565b5b60200201358152509050600060405180604001604052806040518060400160405280866002600881106104d7576104d6610f4a565b5b60200201358152602001866003600881106104f5576104f4610f4a565b5b6020020135815250815260200160405180604001604052808660046008811061052157610520610f4a565b5b602002013581526020018660056008811061053f5761053e610f4a565b5b60200201358152508152509050600060405180604001604052808560066008811061056d5761056c610f4a565b5b602002013581526020018560076008811061058b5761058a610f4a565b5b602002013581525090506000604051806040016040528088815260200187815250905060011515600260009054906101000a900473ffffffffffffffffffffffffffffffffffffffff1673ffffffffffffffffffffffffffffffffffffffff1663f5c9d69e868686866040518563ffffffff1660e01b81526004016106139493929190611122565b60206040518083038186803b15801561062b57600080fd5b505afa15801561063f573d6000803e3d6000fd5b505050506040513d601f19601f8201168201806040525081019061066391906111a1565b1515146106a5576040517f08c379a000000000000000000000000000000000000000000000000000000000815260040161069c9061121a565b60405180910390fd5b50505050505050565b7f30644e72e131a029b85045b68181585d2833e84879b9709143e1f593f00000018310610710576040517f08c379a0000000000000000000000000000000000000000000000000000000008152600401610707906112ac565b60405180910390fd5b600061071b8461022d565b60ff161461075e576040517f08c379a00000000000000000000000000000000000000000000000000000000081526004016107559061133e565b60405180910390fd5b6001600084815260200190815260200160002073__$4c0484323457fe1a856f46a4759b553fe4$__63b4bdd117909184846040518463ffffffff1660e01b81526004016107ad9392919061136d565b60006040518083038186803b1580156107c557600080fd5b505af41580156107d9573d6000803e3d6000fd5b50505050827fc3082aa494e9088c2c9f0fb62a0b6bd46e6699acb94cfba35be29b95a93f68c8838360405161080f9291906113a4565b60405180910390a2505050565b6108b2816040516024016108309190610d7c565b6040516020818303038152906040527ff5b1bba9000000000000000000000000000000000000000000000000000000007bffffffffffffffffffffffffffffffffffffffffffffffffffffffff19166020820180517bffffffffffffffffffffffffffffffffffffffffffffffffffffffff8381831617835250505050610ade565b50565b60008085815260200190815260200160002060009054906101000a900460ff1615610915576040517f08c379a000000000000000000000000000000000000000000000000000000000815260040161090c9061143f565b60405180910390fd5b600061092087610b07565b90508173ffffffffffffffffffffffffffffffffffffffff16635fe8c13b60405180604001604052808660006008811061095d5761095c610f4a565b5b602002013581526020018660016008811061097b5761097a610f4a565b5b602002013581525060405180604001604052806040518060400160405280896002600881106109ad576109ac610f4a565b5b60200201358152602001896003600881106109cb576109ca610f4a565b5b602002013581525081526020016040518060400160405280896004600881106109f7576109f6610f4a565b5b6020020135815260200189600560088110610a1557610a14610f4a565b5b6020020135815250815250604051806040016040528088600660088110610a3f57610a3e610f4a565b5b6020020135815260200188600760088110610a5d57610a5c610f4a565b5b602002013581525060405180608001604052808c81526020018b81526020018781526020018a8152506040518563ffffffff1660e01b8152600401610aa594939291906114e3565b60006040518083038186803b158015610abd57600080fd5b505afa158015610ad1573d6000803e3d6000fd5b5050505050505050505050565b60008151905060006a636f6e736f6c652e6c6f679050602083016000808483855afa5050505050565b6000600882604051602001610b1c9190611555565b6040516020818303038152906040528051906020012060001c901c9050919050565b600073ffffffffffffffffffffffffffffffffffffffff82169050919050565b6000819050919050565b6000610b83610b7e610b7984610b3e565b610b5e565b610b3e565b9050919050565b6000610b9582610b68565b9050919050565b6000610ba782610b8a565b9050919050565b610bb781610b9c565b82525050565b6000602082019050610bd26000830184610bae565b92915050565b600080fd5b6000819050919050565b610bf081610bdd565b8114610bfb57600080fd5b50565b600081359050610c0d81610be7565b92915050565b60008060408385031215610c2a57610c29610bd8565b5b6000610c3885828601610bfe565b9250506020610c4985828601610bfe565b9150509250929050565b600080fd5b600081905082602060080282011115610c7457610c73610c53565b5b92915050565b6000806000806000806102808789031215610c9857610c97610bd8565b5b6000610ca689828a01610bfe565b9650506020610cb789828a01610bfe565b9550506040610cc889828a01610bfe565b9450506060610cd989828a01610bfe565b9350506080610cea89828a01610c58565b925050610180610cfc89828a01610c58565b9150509295509295509295565b600060208284031215610d1f57610d1e610bd8565b5b6000610d2d84828501610bfe565b91505092915050565b600060ff82169050919050565b610d4c81610d36565b82525050565b6000602082019050610d676000830184610d43565b92915050565b610d7681610bdd565b82525050565b6000602082019050610d916000830184610d6d565b92915050565b6000610da282610b8a565b9050919050565b610db281610d97565b82525050565b6000602082019050610dcd6000830184610da9565b92915050565b610ddc81610d36565b8114610de757600080fd5b50565b600081359050610df981610dd3565b92915050565b60008060408385031215610e1657610e15610bd8565b5b6000610e2485828601610bfe565b9250506020610e3585828601610dea565b9150509250929050565b600082825260208201905092915050565b7f53656d6170686f726547726f7570733a2067726f757020646f6573206e6f742060008201527f6578697374000000000000000000000000000000000000000000000000000000602082015250565b6000610eac602583610e3f565b9150610eb782610e50565b604082019050919050565b60006020820190508181036000830152610edb81610e9f565b9050919050565b8082525050565b610ef281610bdd565b82525050565b6000604082019050610f0d6000830185610ee2565b610f1a6020830184610ee9565b9392505050565b6000604082019050610f366000830185610d6d565b610f436020830184610d6d565b9392505050565b7f4e487b7100000000000000000000000000000000000000000000000000000000600052603260045260246000fd5b600060029050919050565b600081905092915050565b6000819050919050565b610fa281610bdd565b82525050565b6000610fb48383610f99565b60208301905092915050565b6000602082019050919050565b610fd681610f79565b610fe08184610f84565b9250610feb82610f8f565b8060005b8381101561101c5781516110038782610fa8565b965061100e83610fc0565b925050600181019050610fef565b505050505050565b600060029050919050565b600081905092915050565b6000819050919050565b600081905092915050565b61105881610f79565b6110628184611044565b925061106d82610f8f565b8060005b8381101561109e5781516110858782610fa8565b965061109083610fc0565b925050600181019050611071565b505050505050565b60006110b2838361104f565b60408301905092915050565b6000602082019050919050565b6110d481611024565b6110de818461102f565b92506110e98261103a565b8060005b8381101561111a57815161110187826110a6565b965061110c836110be565b9250506001810190506110ed565b505050505050565b6000610140820190506111386000830187610fcd565b61114560408301866110cb565b61115260c0830185610fcd565b611160610100830184610fcd565b95945050505050565b60008115159050919050565b61117e81611169565b811461118957600080fd5b50565b60008151905061119b81611175565b92915050565b6000602082840312156111b7576111b6610bd8565b5b60006111c58482850161118c565b91505092915050565b7f496e766c696420646174616f776e6572736869702070726f6f66000000000000600082015250565b6000611204601a83610e3f565b915061120f826111ce565b602082019050919050565b60006020820190508181036000830152611233816111f7565b9050919050565b7f53656d6170686f726547726f7570733a2067726f7570206964206d757374206260008201527f65203c20534e41524b5f5343414c41525f4649454c4400000000000000000000602082015250565b6000611296603683610e3f565b91506112a18261123a565b604082019050919050565b600060208201905081810360008301526112c581611289565b9050919050565b7f53656d6170686f726547726f7570733a2067726f757020616c7265616479206560008201527f7869737473000000000000000000000000000000000000000000000000000000602082015250565b6000611328602583610e3f565b9150611333826112cc565b604082019050919050565b600060208201905081810360008301526113578161131b565b9050919050565b61136781610d36565b82525050565b60006060820190506113826000830186610ee2565b61138f602083018561135e565b61139c6040830184610ee9565b949350505050565b60006040820190506113b96000830185610d43565b6113c66020830184610d6d565b9392505050565b7f53656d6170686f7265436f72653a20796f752063616e6e6f742075736520746860008201527f652073616d65206e756c6c696669657220747769636500000000000000000000602082015250565b6000611429603683610e3f565b9150611434826113cd565b604082019050919050565b600060208201905081810360008301526114588161141c565b9050919050565b600060049050919050565b600081905092915050565b6000819050919050565b6000602082019050919050565b6114958161145f565b61149f818461146a565b92506114aa82611475565b8060005b838110156114db5781516114c28782610fa8565b96506114cd8361147f565b9250506001810190506114ae565b505050505050565b6000610180820190506114f96000830187610fcd565b61150660408301866110cb565b61151360c0830185610fcd565b61152161010083018461148c565b95945050505050565b6000819050919050565b6000819050919050565b61154f61154a8261152a565b611534565b82525050565b6000611561828461153e565b6020820191508190509291505056fea26469706673582212202fde7d32178d2c998619f1723eaba1c2ab424bb656c3d7830ceeaeb967f9456a64736f6c63430008090033",
  "linkReferences": {
    "@zk-kit/incremental-merkle-tree.sol/contracts/IncrementalBinaryTree.sol": {
      "IncrementalBinaryTree": [
        {
          "length": 20,
          "start": 1295
        },
        {
          "length": 20,
          "start": 2382
        }
      ]
    }
  },
  "deployedLinkReferences": {
    "@zk-kit/incremental-merkle-tree.sol/contracts/IncrementalBinaryTree.sol": {
      "IncrementalBinaryTree": [
        {
          "length": 20,
          "start": 820
        },
        {
          "length": 20,
          "start": 1907
        }
      ]
    }
  }
}